:020000040800F2
:1000000000000220D50C000861020008650200080B
:10001000690200086D02000871020008000000007B
:100020000000000000000000000000007502000851
:1000300079020008000000007D020008810200082B
:10004000250D0008250D0008250D0008250D0008C8
:10005000250D0008250D0008250D0008250D0008B8
:10006000250D0008250D0008250D0008250D0008A8
:10007000250D0008250D0008250D0008250D000898
:10008000250D0008250D0008250D0008250D000888
:10009000250D0008250D0008250D0008250D000878
:1000A000250D0008250D0008250D0008250D000868
:1000B000250D0008250D0008250D0008250D000858
:1000C000250D0008250D0008250D0008250D000848
:1000D000250D0008250D0008250D0008250D000838
:1000E000250D0008250D0008250D0008250D000828
:1000F000250D0008250D0008250D0008250D000818
:10010000250D0008250D0008250D0008250D000807
:10011000250D0008250D0008250D0008250D0008F7
:10012000250D0008250D0008250D0008250D0008E7
:10013000250D0008250D0008250D0008250D0008D7
:10014000250D0008250D0008250D0008250D0008C7
:10015000250D0008250D0008250D0008250D0008B7
:10016000250D0008250D0008250D0008250D0008A7
:10017000250D0008250D0008250D0008250D000897
:08018000250D0008250D000803
:1001880010B5054C237833B9044810B10448AFF3CF
:1001980000800121217010BD5804002000000000DB
:1001A800B412000808B5064B1BB106480649AFF360
:1001B80000800648016811B1054A02B1904708BDA0
:1001C80000000000B41200085C0400205404002061
:1001D80000000000154B002B08BF134B9D46A3F5EC
:1001E800803A00218B460F461348144A121A00F031
:1001F8006FFE0F4B002B00D098470E4B002B00D002
:1002080098470020002104460D4600200C49002292
:10021800002300F085FD00F011FE2046294600F07D
:100228001DFD00F0D3FD00BF000008000000000025
:100238000000000000000000580400207C0400209A
:10024800F50D000882B00190019B5A1E0192002B07
:10025800FAD102B0704700BF704700BFFEE700BF89
:10026800FEE700BFFEE700BFFEE700BF704700BF24
:10027800704700BF704700BF704700BF4FF460531E
:10028800C4F202030022196841F0010018609A6064
:10029800186843F2100120F0847020F48030C2F214
:1002A800004118605960196882B021F480201860F4
:1002B800DA60009201921A6842F480311960184697
:1002C80003E00099B1F5A06F09D0036803F4003288
:1002D800019200994B1C0093019A002AF1D04FF427
:1002E8006050C4F20200036813F400320DD00121FB
:1002F8000191019801280CD04FF46D43CEF2000310
:100308004FF00061996002B070470192019801288E
:10031800F2D14FF46053C4F202034FF4E042196C77
:10032800C4F2000241F080501864116841F4804022
:1003380010609A689A60996841F4004098609968DA
:1003480045F2084241F4A050C0F2407298605A60E9
:10035800196841F080721A60184601684FF46053BA
:100368008A01C4F20203F8D54FF47052C4F20202B3
:1003780040F205601060996821F003029A6098685D
:1003880040F0020199609A6802F00C000828FAD13E
:10039800B2E700BF4FF46053C4F202039A6802F058
:1003A8000C00042812D0082815D04FF41051C0F2C0
:1003B800F4014FF46050C4F20200184B8268C2F393
:1003C80003101A5C21FA02F11961704747F64001DF
:1003D800C0F27D11EDE758685A6810F4800F58682C
:1003E80002F03F0114BF47F640034FF41053C0F327
:1003F80088124FF4605014BFC0F27D13C0F2F403AA
:10040800C4F20200B3FBF1F303FB02F14268C2F34A
:100418000143581C4200B1FBF2F1CAE70400002076
:10042800E4120008000000205404002058040020B2
:100438007C0400204FF46053C4F2020300221968C0
:1004480041F0010018609A60186843F2100120F02A
:10045800847020F48030C2F2004118605960196835
:1004680021F480201860DA60704700BF43F6020369
:10047800C4F2020300221A701870704782B04FF459
:10048800605200230193C4F20202106883030CD562
:10049800019A511C0191019B4FF46053C4F202036D
:1004A8001868C0F3404002B0704701994B1C019393
:1004B8000198B0F5A06FE8D1EEE700BF4FF46053A4
:1004C800C4F202031A6822F0F80141EAC000186079
:1004D800704700BF0023C4F247231860704700BF6D
:1004E80043F67003C4F20203002201281A701A703E
:1004F80004D0042801D1052018707047187070477F
:100508004FF46863C4F247231860704730B401435E
:10051800029D41EA82125B084FF4605442EA056585
:10052800591EC4F2020445EA0140606030BC7047BD
:100538006023C4F247231860704700BF4FF460532C
:100548008001C4F2020340EA0171C3F884107047C5
:100558006823C4F247231860704700BF4C23C4F2D5
:1005680047231860704700BF4FF46053C4F202037A
:100578009A6822F0EC62104301439960704700BF0B
:100588004FF46053C4F202039A6822F07842104391
:1005980001439960704700BF4FF46053C4F20203EF
:1005A8009A6822F003010843986070474FF460533B
:1005B800C4F20203986800F00C0070474FF46053CF
:1005C800C4F202039A6822F0F00108439860704769
:1005D8004FF46053C4F202039A6822F4E0510843CE
:1005E800986070474FF46053C4F202039A6822F48B
:1005F800604141EAC0009860704700BF4FF4605303
:10060800C4F2020310B49A6802F00C01042922D043
:10061800082926D04FF41052C0F2F40202604FF4B9
:100628006053C4F2020321499C68C4F303140C5DAF
:1006380022FA04F242609C68C4F382240C5D22FA18
:1006480004F484609B68C3F34233C95C22FA01F264
:10065800C26010BC704747F64002C0F27D120260CB
:10066800DDE75C68596814F4800F5C6801F03F02AC
:1006780014BF47F640034FF41053C4F388114FF4E6
:10068800605414BFC0F27D13C0F2F403C4F2020434
:10069800B3FBF2F303FB01F26168C1F301435C1C95
:1006A8006100B2FBF1F20260B9E700BF1800002058
:1006B80000F44073B3F5407F0CD14FF46053C4F29B
:1006C800020320F070419A6821F4407122F4F81274
:1006D800114399604FF46053C4F2020300051A6F86
:1006E800010D11431967704740F63C63C4F2472374
:1006F800186070474FF46463C4F24723186070476A
:100708004FF4AE73C4F24723186070474FF4605338
:10071800C4F202031A6B19B922EA00001863704781
:1007280010431863704700BF4FF46053C4F20203CC
:100738005A6B19B922EA000058637047104358638E
:10074800704700BF4FF46053C4F202039A6B19B9A3
:1007580022EA00009863704710439863704700BF0F
:100768004FF46053C4F202031A6C19B922EA00006C
:100778001864704710431864704700BF4FF4605303
:10078800C4F202035A6C19B922EA0000586470478F
:1007980010435864704700BF4FF46053C4F202031B
:1007A8001A6919B922EA00001861704710431861E4
:1007B800704700BF4FF46053C4F202035A6919B975
:1007C80022EA00005861704710435861704700BF23
:1007D8004FF46053C4F202039A6919B922EA00007F
:1007E8009861704710439861704700BF4FF4605399
:1007F800C4F202031A6A19B922EA000018627047A3
:1008080010431862704700BF4FF46053C4F20203EC
:100818005A6A19B922EA00005862704710435862B0
:10082800704700BF4FF46053C4F202031A6D19B940
:1008380022EA00001865704710431865704700BF2A
:100848004FF46053C4F202035A6D19B922EA00004A
:100858005865704710435865704700BF4FF46053A0
:10086800C4F202039A6D19B922EA0000986570472C
:1008780010439865704700BF4FF46053C4F20203F9
:100888001A6E19B922EA00001866704710431866F4
:10089800704700BF4FF46053C4F202035A6E19B98F
:1008A80022EA00005866704710435866704700BF38
:1008B80043F60D03C4F202031A7819B922EA0000BC
:1008C8001870704710431870704700BF4309012B18
:1008D8000ED04FF46051C4F20201022B0CBF096F15
:1008E800496F00F01F0021FA00F303F00100704780
:1008F8004FF46052C4F202021168F2E74FF46053F9
:10090800C4F202035A6F42F080705867704700BF04
:100918004FF46053C4F20203D96808420CBF0020A8
:100928000120704743F60E03C4F2020318707047A3
:1009380008B50023C4F2020398423CD04FF480610A
:10094800C4F20201884240D04FF40062C4F20202AD
:10095800904244D04FF44063C4F20203984248D016
:100968004FF48051C4F2020188424CD04FF4A05297
:10097800C4F20202904250D04FF4C053C4F20203B2
:10098800984254D04FF4E051C4F20201884258D042
:100998004FF40052C4F20202904200D008BD012177
:1009A8004FF48070FFF7F8FE4FF480700021BDE827
:1009B8000840FFF7F1BE01200146FFF7EDFE0120D8
:1009C8000021BDE80840FFF7E7BE02200121FFF73C
:1009D800E3FE02200021BDE80840FFF7DDBE042049
:1009E8000121FFF7D9FE04200021BDE80840FFF7E8
:1009F800D3BE08200121FFF7CFFE08200021BDE863
:100A08000840FFF7C9BE10200121FFF7C5FE1020DE
:100A18000021BDE80840FFF7BFBE20200121FFF7F5
:100A2800BBFE20200021BDE80840FFF7B5BE4020EE
:100A38000121FFF7B1FE40200021BDE80840FFF783
:100A4800ABBE80200121FFF7A7FE80200021BDE872
:100A58000840FFF7A1BE00BF2DE9F00F0E6884B073
:100A68000022884613464FF0010B00968A4607E09D
:100A7800DDF80490A14539D04B1CAA1C102B54D08A
:100A8800009E0BFA03F5591C05EA060C0BFA01F453
:100A98002640AC45019602F10205E9D1032606FA83
:100AA80002F907689AF804806FEA09094E463E4041
:100AB80006600768CDF80C9008FA02F908F1FF38CB
:100AC80049EA0709B8F1010FC0F8009031D9C368A5
:100AD800039F9AF807C0DDF804903B40C360C368E1
:100AE8000CFA02F21A43A145C260C5D10323046877
:100AF8009AF80420AB40DB431C400460046802FA07
:100B080005FC013A4CEA0404012A046033D9C2689E
:100B18009AF807401340C360C26804FA05F3134308
:100B2800C3604B1CAA1C102BAAD104B0BDE8F00F5F
:100B38007047D0F80880039E9AF806709AF80590D6
:100B480006EA0808C0F80880D0F8088009FA02F90F
:100B580049EA0808C0F80880D0F8048028EA0C0C94
:100B6800C0F804C0D0F8049007FA03F39FB247EA2C
:100B780009034360ABE786689AF805709AF806207F
:100B88001E408660846807FA05FC4CEA0406866005
:100B98004768019E27EA06074760446802FA01F29F
:100BA80092B222434260B2E700234FF6FF7202601E
:100BB800037143718371C371704700BF82B04FF4F2
:100BC80080330193019A41EA02030193019AC261B9
:100BD800C1610199C161C3690193C069019002B003
:100BE800704700BF036919420CBF002001207047FD
:100BF800006980B2704700BF436919420CBF0020EA
:100C080001207047406980B2704700BF0183704778
:100C1800418370470AB9418370470183704700BF19
:100C2800416170474369594041617047CB080833B7
:100C380001F0070130B4890050F823500F2404FA5A
:100C480001F425EA040440F8234050F8234002FA4E
:100C580001F2144340F8234030BC704708B508201F
:100C68000121FFF753FD184B4FF400444FF4406047
:100C78001C60012400221C71C4F2020003241946DE
:100C88009A715C71DA71FFF7E7FE4FF440604FF438
:100C98000041C4F20200FFF7B9FF4FF6FF71C0F23E
:100CA8007F01481E02390028FBD14FF44060C4F28E
:100CB80002004FF40041FFF7ABFF6FF07F42531E75
:100CC800023A002BFBD1E0E774040020002100F079
:100CD80004B80D4B5B58435004310C480C4B421878
:100CE8009A42FFF4F6AF0B4A00F003B8002342F82B
:100CF800043B094B9A42FFF4F9AFFFF7BFFA00F043
:100D08009DF8FFF7ABFF7047E412000800000020D1
:100D180054040020580400207C040020FFF7FEBF84
:100D28002DE9F041274C2568D5F8484184B007469D
:100D3800002C41D066681F2E1CDD234810B94FF0E7
:100D4800FF301FE04FF4C870039102920193AFF394
:100D580000800399029A019B04460028EFD0D5F839
:100D68004861002060602660C5F84841C4F88801E1
:100D7800C4F88C01656847B9A81C013544F82010EF
:100D88006560002004B0BDE8F081D4F888610120D6
:100D980004EB850800FA05F00643022FC8F88820FE
:100DA800C4F88861C8F80831E6D1D4F88C3143EA30
:100DB8000002C4F88C21DFE705F5A674C5F84841A0
:100DC800B8E700BFB01200080000000008B5002115
:100DD800044600F01DF9044B1868C16B01B188473F
:100DE800204600F072EA00BFB012000870B5114B3F
:100DF800114C181B811018D004EB81044E1E354687
:100E080054F8042D06F00106904775B126B154F840
:100E1800043D9847013D08D054F8040D8047013D32
:100E280054F8041D8847013DF6D1BDE8704000F034
:100E380045BA00BFE4120008E0120008F8B5204FD8
:100E4800204C381B871017D07A1E2368012502F022
:100E580001069847AF420FD02EB154F8041F02255F
:100E68008847AF4208D0606880470235A268261DCF
:100E780090470834AF42F6D1134F144C00F018FADB
:100E88003B1B9F1018D07D1E216805F00106012527
:100E98008847AF4211D02EB154F8040F022580477D
:100EA800AF420BD0626890470235A368261D984769
:100EB8000834AF42F6D1F8BDF8BDF8BDF8BD00BFA3
:100EC800D8120008D8120008E0120008D81200084A
:100ED800F0B48407034600F08E80541E002A00F008
:100EE8008880E507CEB211D41A46671E02F8016B56
:100EF8001346154692070FD0002C7AD003F8016BE1
:100F08009A073C461D4607D0013CEDE7034603F827
:100F1800016B9A071D46F7D1032C52D9CEB246EA87
:100F280006270F2C47EA07432DD9A4F110021746CC
:100F38000F2FC2F300162B606B60AB60EB6005F1FE
:100F4800100216D93EB1103F136053609360D3600E
:100F580010320F2F0DD9203F02F110061360536095
:100F68009360D360136153619361D36120320F2F73
:100F7800F1D8A4F1100222F00F0204F00F0410328D
:100F8800032C15441DD9271F3E462A46032E42F836
:100F9800043BC7F380070DD927B1043E032E42F85E
:100FA800043B07D91746083E47F8043B53603A1DEF
:100FB800032EF7D8231F23F00302131D04F00304A4
:100FC800ED18B4B12B46C9B203F8011B2C19ED4337
:100FD8006219A34202F001050BD01DB103F8011BF1
:100FE800A34206D01A4602F8011B5970531CA342AB
:100FF800F8D1F0BC7047054614468DE7024B13B193
:10100800024800F049B9704700000000F50D0008DB
:101018002DE9F04F9F4B87B01A68049002F5A47031
:1010280003920D4605904FF0010A0399DDF81490DC
:10103800D1F84841002C43D06268B2F1010838D495
:1010480004F1880B1F320BEB820308F0010C002D12
:1010580000F08C805BF82260AE4200F087801E1F93
:1010680008F1FF37B8F1000F23D0BCF1000F0BD007
:10107800002D00F0A28053F8043CAB4200F09D80A4
:10108800013F043E7B1C14D0B846E5B13768AF4237
:1010980019D008F1FF37A6F10408002D3FD056F803
:1010A800046CAE423BD0A8F1040607F1FF38002FCC
:1010B800EBD140F20002C0F20002002A40F0DA80D0
:1010C80007B0BDE8F08F6168CBEB0602A0184F1E91
:1010D800474550F8783C00F09280002240F8782C80
:1010E800002BD6D0D4F8881167680AFA08F00842AD
:1010F8003AD0D4F88C21104240F09780049856F8E2
:10110800801C98476368BB428FD1D9F80010A14270
:101118008BD108F1FF37A6F10408002DBFD1636811
:10112800CBEB0800591E2218B94252F8783C69D016
:10113800002642F8786C002BB5D0D4F88801666890
:101148000AFA07F2024236D0D4F88C110A4270D05B
:1011580058F8800C98476368B3427FF466AFD9F8B3
:101168000000A0429FD060E79847CBE76268CBEBCE
:101178000300561E2118464551F8782C70D00020DF
:1011880041F8780C002A3FF46AAFD4F88801666801
:101198000AFA08F1014237D0D4F88C01014255D13E
:1011A80053F8801C04980293CDF804C09047029B22
:1011B800DDF804C02FE09847CDE76168CBEB060067
:1011C8002218481EB84252F8783C4CD0002142F808
:1011D800781C002B3FF454AFD4F88801D4F804806D
:1011E8000AFA07F2024229D19847636843457FF417
:1011F8001CAFD9F80000A0423FF442AF15E7C4F88D
:1012080004806DE7676096E70293CDF804C09047C5
:10121800029BDDF804C06268B2427FF406AFD9F8D9
:101228000010A1423FF41BAFFFE656F8800C984728
:1012380068E7049858F8801C98478CE7D4F88C1114
:101248000A4212D056F8800C9847CEE753F8800C23
:101258000293CDF804C09047029BDDF804C0DAE79A
:10126800C4F804808EE76760B3E7049856F8801CDA
:101278009847BAE7616849B9236843B12046C9F875
:101288000030AFF30080D9F80040D3E62368A146C8
:101298001C46CFE6B012000801460020024603466D
:1012A800FFF73EBD430000002800002000000000BA
:1012B800F8B500BFF8BC08BC9E467047F8B500BF3B
:0812C800F8BC08BC9E4670470B
:0812D0000CEFFF7F010000009C
:0812D80005100008AD0100083B
:0412E0008901000878
:1012E40000000000000000000000000001020304F0
:1012F40006070809007A030A00000000010203043B
:10130400010203040607080900000000140300207A
:101314007C030020E4030020000000000000000023
:1013240000000000000000000000000000000000B9
:10133400000000000000000000000000AC120008E3
:101344000000000000000000000000000000000099
:101354000000000000000000000000000000000089
:101364000000000000000000000000000000000079
:101374000000000000000000000000000000000069
:101384000000000000000000000000000000000059
:101394000000000000000000000000000000000049
:1013A4000000000000000000000000000000000039
:1013B40001000000000000000E33CDAB34126DE6D6
:1013C400ECDE05000B00000000000000000000003F
:1013D4000000000000000000000000000000000009
:1013E40000000000000000000000000000000000F9
:1013F40000000000000000000000000000000000E9
:1014040000000000000000000000000000000000D8
:041734002800002069
:0417380000000000AD
:0400000508000CD50E
:00000001FF
